:020000040800F2
:100000000020002091010008D1010008D101000862
:10001000D1010008D1010008D10100080000000052
:10002000000000000000000000000000D1010008F6
:10003000D101000800000000D1010008D101000832
:10004000D1010008D1010008D1010008D101000848
:10005000D1010008D1010008D1010008D101000838
:10006000D1010008D1010008D1010008D101000828
:10007000D1010008D1010008D1010008D101000818
:10008000D1010008D1010008D1010008D101000808
:10009000D1010008D1010008D1010008D1010008F8
:1000A000D1010008D1010008D1010008D1010008E8
:1000B000D1010008D1010008D1010008D1010008D8
:1000C000D1010008D1010008D1010008D1010008C8
:1000D000D1010008D1010008D1010008D1010008B8
:1000E000D1010008D1010008D1010008D1010008A8
:1000F000D101000800000000000000000000000026
:0C01000000000000000000005FF808F1A3
:10010C00FEE700001048032101601048104901600F
:10011C0010481149016011488021016010483F21AD
:10012C00016010480F2101600F48012101600F4A46
:10013C00116801231940FAD00848C0210160FFE77B
:10014C00FFF7DEFF704700BF1C3802400000024082
:10015C00000000A8000402408057555514040240CA
:10016C0024380240280000400000004010000240EB
:10017C00D401000800000020000000200000002036
:10018C0000000020002103E0094B5B584350043170
:10019C000848094B42189A42F6D3084A02E0002359
:1001AC0042F8043B064B9A42F9D3FFF7ABFF70477A
:1001BC00D4010008000000200000002000000020F6
:0801CC0000000020FEE7000026
:04000005080001915D
:00000001FF
